{
  "_format": "hh-sol-artifact-1",
  "contractName": "SocialMedia",
  "sourceName": "contracts/SocialMedia.sol",
  "abi": [
    {
      "anonymous": false,
      "inputs": [
        {
          "indexed": true,
          "internalType": "uint256",
          "name": "postId",
          "type": "uint256"
        },
        {
          "indexed": false,
          "internalType": "uint256",
          "name": "commentId",
          "type": "uint256"
        },
        {
          "indexed": false,
          "internalType": "address",
          "name": "commenter",
          "type": "address"
        }
      ],
      "name": "CommentAdded",
      "type": "event"
    },
    {
      "anonymous": false,
      "inputs": [
        {
          "indexed": true,
          "internalType": "address",
          "name": "from",
          "type": "address"
        },
        {
          "indexed": true,
          "internalType": "address",
          "name": "to",
          "type": "address"
        },
        {
          "indexed": false,
          "internalType": "uint256",
          "name": "amount",
          "type": "uint256"
        }
      ],
      "name": "Donation",
      "type": "event"
    },
    {
      "anonymous": false,
      "inputs": [
        {
          "indexed": true,
          "internalType": "address",
          "name": "follower",
          "type": "address"
        },
        {
          "indexed": true,
          "internalType": "address",
          "name": "followed",
          "type": "address"
        }
      ],
      "name": "Followed",
      "type": "event"
    },
    {
      "anonymous": false,
      "inputs": [
        {
          "indexed": false,
          "internalType": "uint256",
          "name": "id",
          "type": "uint256"
        },
        {
          "indexed": true,
          "internalType": "address",
          "name": "author",
          "type": "address"
        },
        {
          "indexed": false,
          "internalType": "string",
          "name": "content",
          "type": "string"
        },
        {
          "indexed": false,
          "internalType": "uint256",
          "name": "timestamp",
          "type": "uint256"
        }
      ],
      "name": "PostCreated",
      "type": "event"
    },
    {
      "anonymous": false,
      "inputs": [
        {
          "indexed": false,
          "internalType": "uint256",
          "name": "id",
          "type": "uint256"
        },
        {
          "indexed": true,
          "internalType": "address",
          "name": "demoter",
          "type": "address"
        }
      ],
      "name": "PostDemoted",
      "type": "event"
    },
    {
      "anonymous": false,
      "inputs": [
        {
          "indexed": false,
          "internalType": "uint256",
          "name": "id",
          "type": "uint256"
        },
        {
          "indexed": true,
          "internalType": "address",
          "name": "promoter",
          "type": "address"
        }
      ],
      "name": "PostPromoted",
      "type": "event"
    },
    {
      "inputs": [
        {
          "internalType": "uint256",
          "name": "_postId",
          "type": "uint256"
        },
        {
          "internalType": "string",
          "name": "_content",
          "type": "string"
        }
      ],
      "name": "addComment",
      "outputs": [],
      "stateMutability": "nonpayable",
      "type": "function"
    },
    {
      "inputs": [],
      "name": "commentCount",
      "outputs": [
        {
          "internalType": "uint256",
          "name": "",
          "type": "uint256"
        }
      ],
      "stateMutability": "view",
      "type": "function"
    },
    {
      "inputs": [
        {
          "internalType": "string",
          "name": "_content",
          "type": "string"
        }
      ],
      "name": "createPost",
      "outputs": [],
      "stateMutability": "nonpayable",
      "type": "function"
    },
    {
      "inputs": [
        {
          "internalType": "uint256",
          "name": "_id",
          "type": "uint256"
        }
      ],
      "name": "demotePost",
      "outputs": [],
      "stateMutability": "nonpayable",
      "type": "function"
    },
    {
      "inputs": [
        {
          "internalType": "uint256",
          "name": "",
          "type": "uint256"
        },
        {
          "internalType": "address",
          "name": "",
          "type": "address"
        }
      ],
      "name": "demotedPosts",
      "outputs": [
        {
          "internalType": "bool",
          "name": "",
          "type": "bool"
        }
      ],
      "stateMutability": "view",
      "type": "function"
    },
    {
      "inputs": [
        {
          "internalType": "uint256",
          "name": "_id",
          "type": "uint256"
        }
      ],
      "name": "donate",
      "outputs": [],
      "stateMutability": "payable",
      "type": "function"
    },
    {
      "inputs": [
        {
          "internalType": "address",
          "name": "_user",
          "type": "address"
        }
      ],
      "name": "followUser",
      "outputs": [],
      "stateMutability": "nonpayable",
      "type": "function"
    },
    {
      "inputs": [
        {
          "internalType": "address",
          "name": "",
          "type": "address"
        },
        {
          "internalType": "uint256",
          "name": "",
          "type": "uint256"
        }
      ],
      "name": "followers",
      "outputs": [
        {
          "internalType": "address",
          "name": "",
          "type": "address"
        }
      ],
      "stateMutability": "view",
      "type": "function"
    },
    {
      "inputs": [
        {
          "internalType": "address",
          "name": "",
          "type": "address"
        },
        {
          "internalType": "uint256",
          "name": "",
          "type": "uint256"
        }
      ],
      "name": "following",
      "outputs": [
        {
          "internalType": "address",
          "name": "",
          "type": "address"
        }
      ],
      "stateMutability": "view",
      "type": "function"
    },
    {
      "inputs": [
        {
          "internalType": "uint256",
          "name": "_postId",
          "type": "uint256"
        }
      ],
      "name": "getComments",
      "outputs": [
        {
          "components": [
            {
              "internalType": "uint256",
              "name": "id",
              "type": "uint256"
            },
            {
              "internalType": "uint256",
              "name": "postId",
              "type": "uint256"
            },
            {
              "internalType": "address",
              "name": "commenter",
              "type": "address"
            },
            {
              "internalType": "string",
              "name": "content",
              "type": "string"
            },
            {
              "internalType": "uint256",
              "name": "timestamp",
              "type": "uint256"
            }
          ],
          "internalType": "struct SocialMedia.Comment[]",
          "name": "",
          "type": "tuple[]"
        }
      ],
      "stateMutability": "view",
      "type": "function"
    },
    {
      "inputs": [
        {
          "internalType": "address",
          "name": "_user",
          "type": "address"
        }
      ],
      "name": "getFollowing",
      "outputs": [
        {
          "internalType": "address[]",
          "name": "",
          "type": "address[]"
        }
      ],
      "stateMutability": "view",
      "type": "function"
    },
    {
      "inputs": [],
      "name": "getPosts",
      "outputs": [
        {
          "components": [
            {
              "internalType": "uint256",
              "name": "id",
              "type": "uint256"
            },
            {
              "internalType": "address",
              "name": "author",
              "type": "address"
            },
            {
              "internalType": "string",
              "name": "content",
              "type": "string"
            },
            {
              "internalType": "uint256",
              "name": "timestamp",
              "type": "uint256"
            },
            {
              "internalType": "int256",
              "name": "reputation",
              "type": "int256"
            }
          ],
          "internalType": "struct SocialMedia.Post[]",
          "name": "",
          "type": "tuple[]"
        }
      ],
      "stateMutability": "view",
      "type": "function"
    },
    {
      "inputs": [
        {
          "internalType": "uint256",
          "name": "",
          "type": "uint256"
        },
        {
          "internalType": "uint256",
          "name": "",
          "type": "uint256"
        }
      ],
      "name": "postComments",
      "outputs": [
        {
          "internalType": "uint256",
          "name": "id",
          "type": "uint256"
        },
        {
          "internalType": "uint256",
          "name": "postId",
          "type": "uint256"
        },
        {
          "internalType": "address",
          "name": "commenter",
          "type": "address"
        },
        {
          "internalType": "string",
          "name": "content",
          "type": "string"
        },
        {
          "internalType": "uint256",
          "name": "timestamp",
          "type": "uint256"
        }
      ],
      "stateMutability": "view",
      "type": "function"
    },
    {
      "inputs": [],
      "name": "postCount",
      "outputs": [
        {
          "internalType": "uint256",
          "name": "",
          "type": "uint256"
        }
      ],
      "stateMutability": "view",
      "type": "function"
    },
    {
      "inputs": [
        {
          "internalType": "uint256",
          "name": "",
          "type": "uint256"
        }
      ],
      "name": "posts",
      "outputs": [
        {
          "internalType": "uint256",
          "name": "id",
          "type": "uint256"
        },
        {
          "internalType": "address",
          "name": "author",
          "type": "address"
        },
        {
          "internalType": "string",
          "name": "content",
          "type": "string"
        },
        {
          "internalType": "uint256",
          "name": "timestamp",
          "type": "uint256"
        },
        {
          "internalType": "int256",
          "name": "reputation",
          "type": "int256"
        }
      ],
      "stateMutability": "view",
      "type": "function"
    },
    {
      "inputs": [
        {
          "internalType": "uint256",
          "name": "_id",
          "type": "uint256"
        }
      ],
      "name": "promotePost",
      "outputs": [],
      "stateMutability": "nonpayable",
      "type": "function"
    },
    {
      "inputs": [
        {
          "internalType": "uint256",
          "name": "",
          "type": "uint256"
        },
        {
          "internalType": "address",
          "name": "",
          "type": "address"
        }
      ],
      "name": "promotedPosts",
      "outputs": [
        {
          "internalType": "bool",
          "name": "",
          "type": "bool"
        }
      ],
      "stateMutability": "view",
      "type": "function"
    }
  ],
  "bytecode": "0x608060405260008055600060015534801561001957600080fd5b50612801806100296000396000f3fe6080604052600436106100fe5760003560e01c8063a70806f711610095578063d8236dff11610064578063d8236dff14610361578063d827c8dd1461039e578063ebd009d3146103c7578063f14faf6f14610404578063fb408d5214610420576100fe565b8063a70806f7146102bd578063aa7e5683146102e6578063bba11c801461030f578063c7303c6114610338576100fe565b806341f3004a116100d157806341f3004a146101e957806345ff20de146102145780635193c94c1461023f5780639139cda514610280576100fe565b80630b1e7f831461010357806317906c2e1461014457806323edf6971461016f578063369dc50d146101ac575b600080fd5b34801561010f57600080fd5b5061012a60048036038101906101259190611af9565b61045d565b60405161013b959493929190612309565b60405180910390f35b34801561015057600080fd5b5061015961053b565b60405161016691906122c5565b60405180910390f35b34801561017b57600080fd5b5061019660048036038101906101919190611af9565b610541565b6040516101a39190612186565b60405180910390f35b3480156101b857600080fd5b506101d360048036038101906101ce9190611b22565b6106b9565b6040516101e091906121ca565b60405180910390f35b3480156101f557600080fd5b506101fe6106e8565b60405161020b91906121a8565b60405180910390f35b34801561022057600080fd5b50610229610919565b60405161023691906122c5565b60405180910390f35b34801561024b57600080fd5b5061026660048036038101906102619190611bb2565b61091f565b6040516102779594939291906123a1565b60405180910390f35b34801561028c57600080fd5b506102a760048036038101906102a29190611a7c565b610a1a565b6040516102b49190612149565b60405180910390f35b3480156102c957600080fd5b506102e460048036038101906102df9190611a53565b610a68565b005b3480156102f257600080fd5b5061030d60048036038101906103089190611b5e565b610dad565b005b34801561031b57600080fd5b5061033660048036038101906103319190611af9565b610f9f565b005b34801561034457600080fd5b5061035f600480360381019061035a9190611ab8565b611212565b005b34801561036d57600080fd5b5061038860048036038101906103839190611a53565b61139d565b6040516103959190612164565b60405180910390f35b3480156103aa57600080fd5b506103c560048036038101906103c09190611af9565b61146a565b005b3480156103d357600080fd5b506103ee60048036038101906103e99190611a7c565b6116dd565b6040516103fb9190612149565b60405180910390f35b61041e60048036038101906104199190611af9565b61172b565b005b34801561042c57600080fd5b5061044760048036038101906104429190611b22565b6118aa565b60405161045491906121ca565b60405180910390f35b60026020528060005260406000206000915090508060000154908060010160009054906101000a900473ffffffffffffffffffffffffffffffffffffffff16908060020180546104ac9061263b565b80601f01602080910402602001604051908101604052809291908181526020018280546104d89061263b565b80156105255780601f106104fa57610100808354040283529160200191610525565b820191906000526020600020905b81548152906001019060200180831161050857829003601f168201915b5050505050908060030154908060040154905085565b60005481565b606060076000838152602001908152602001600020805480602002602001604051908101604052809291908181526020016000905b828210156106ae57838290600052602060002090600502016040518060a001604052908160008201548152602001600182015481526020016002820160009054906101000a900473ffffffffffffffffffffffffffffffffffffffff1673ffffffffffffffffffffffffffffffffffffffff1673ffffffffffffffffffffffffffffffffffffffff1681526020016003820180546106139061263b565b80601f016020809104026020016040519081016040528092919081815260200182805461063f9061263b565b801561068c5780601f106106615761010080835404028352916020019161068c565b820191906000526020600020905b81548152906001019060200180831161066f57829003601f168201915b5050505050815260200160048201548152505081526020019060010190610576565b505050509050919050565b60046020528160005260406000206020528060005260406000206000915091509054906101000a900460ff1681565b60606000805467ffffffffffffffff81111561072d577f4e487b7100000000000000000000000000000000000000000000000000000000600052604160045260246000fd5b60405190808252806020026020018201604052801561076657816020015b6107536118d9565b81526020019060019003908161074b5790505b509050600080805490505b6001811061091057600260008281526020019081526020016000206040518060a0016040529081600082015481526020016001820160009054906101000a900473ffffffffffffffffffffffffffffffffffffffff1673ffffffffffffffffffffffffffffffffffffffff1673ffffffffffffffffffffffffffffffffffffffff1681526020016002820180546108079061263b565b80601f01602080910402602001604051908101604052809291908181526020018280546108339061263b565b80156108805780601f1061085557610100808354040283529160200191610880565b820191906000526020600020905b81548152906001019060200180831161086357829003601f168201915b50505050508152602001600382015481526020016004820154815250508383815181106108d6577f4e487b7100000000000000000000000000000000000000000000000000000000600052603260045260246000fd5b602002602001018190525081806108ec906126b6565b92505060018114156108fd57610910565b808061090890612611565b915050610771565b50819250505090565b60015481565b6007602052816000526040600020818154811061093b57600080fd5b9060005260206000209060050201600091509150508060000154908060010154908060020160009054906101000a900473ffffffffffffffffffffffffffffffffffffffff16908060030180546109919061263b565b80601f01602080910402602001604051908101604052809291908181526020018280546109bd9061263b565b8015610a0a5780601f106109df57610100808354040283529160200191610a0a565b820191906000526020600020905b8154815290600101906020018083116109ed57829003601f168201915b5050505050908060040154905085565b60066020528160005260406000208181548110610a3657600080fd5b906000526020600020016000915091509054906101000a900473ffffffffffffffffffffffffffffffffffffffff1681565b3373ffffffffffffffffffffffffffffffffffffffff168173ffffffffffffffffffffffffffffffffffffffff161415610ad7576040517f08c379a0000000000000000000000000000000000000000000000000000000008152600401610ace906122a5565b60405180910390fd5b6000600660003373ffffffffffffffffffffffffffffffffffffffff1673ffffffffffffffffffffffffffffffffffffffff168152602001908152602001600020905060005b8180549050811015610c0e578273ffffffffffffffffffffffffffffffffffffffff16828281548110610b79577f4e487b7100000000000000000000000000000000000000000000000000000000600052603260045260246000fd5b9060005260206000200160009054906101000a900473ffffffffffffffffffffffffffffffffffffffff1673ffffffffffffffffffffffffffffffffffffffff161415610bfb576040517f08c379a0000000000000000000000000000000000000000000000000000000008152600401610bf290612225565b60405180910390fd5b8080610c06906126b6565b915050610b1d565b50600660003373ffffffffffffffffffffffffffffffffffffffff1673ffffffffffffffffffffffffffffffffffffffff168152602001908152602001600020829080600181540180825580915050600190039060005260206000200160009091909190916101000a81548173ffffffffffffffffffffffffffffffffffffffff021916908373ffffffffffffffffffffffffffffffffffffffff160217905550600560008373ffffffffffffffffffffffffffffffffffffffff1673ffffffffffffffffffffffffffffffffffffffff168152602001908152602001600020339080600181540180825580915050600190039060005260206000200160009091909190916101000a81548173ffffffffffffffffffffffffffffffffffffffff021916908373ffffffffffffffffffffffffffffffffffffffff1602179055508173ffffffffffffffffffffffffffffffffffffffff163373ffffffffffffffffffffffffffffffffffffffff167f6178e95c138f06036cdc07a49ed6a3d23008969fa143baeceb037ebae22e8d1460405160405180910390a35050565b600082118015610dbf57506000548211155b610dfe576040517f08c379a0000000000000000000000000000000000000000000000000000000008152600401610df590612245565b60405180910390fd5b6000815111610e42576040517f08c379a0000000000000000000000000000000000000000000000000000000008152600401610e3990612265565b60405180910390fd5b60016000815480929190610e55906126b6565b919050555060006040518060a0016040528060015481526020018481526020013373ffffffffffffffffffffffffffffffffffffffff16815260200183815260200142815250905060076000848152602001908152602001600020819080600181540180825580915050600190039060005260206000209060050201600090919091909150600082015181600001556020820151816001015560408201518160020160006101000a81548173ffffffffffffffffffffffffffffffffffffffff021916908373ffffffffffffffffffffffffffffffffffffffff1602179055506060820151816003019080519060200190610f5192919061191e565b50608082015181600401555050827fdb54cde47150062529bc4f2e10c2493c8ae39bc079c9c24f9e365c135098d4bb60015433604051610f929291906122e0565b60405180910390a2505050565b600081118015610fb157506000548111155b610ff0576040517f08c379a0000000000000000000000000000000000000000000000000000000008152600401610fe790612245565b60405180910390fd5b6004600082815260200190815260200160002060003373ffffffffffffffffffffffffffffffffffffffff1673ffffffffffffffffffffffffffffffffffffffff16815260200190815260200160002060009054906101000a900460ff161561108e576040517f08c379a000000000000000000000000000000000000000000000000000000000815260040161108590612285565b60405180910390fd5b6003600082815260200190815260200160002060003373ffffffffffffffffffffffffffffffffffffffff1673ffffffffffffffffffffffffffffffffffffffff16815260200190815260200160002060009054906101000a900460ff161561112c576040517f08c379a0000000000000000000000000000000000000000000000000000000008152600401611123906121e5565b60405180910390fd5b600260008281526020019081526020016000206004016000815480929190611153906125c8565b919050555060016004600083815260200190815260200160002060003373ffffffffffffffffffffffffffffffffffffffff1673ffffffffffffffffffffffffffffffffffffffff16815260200190815260200160002060006101000a81548160ff0219169083151502179055503373ffffffffffffffffffffffffffffffffffffffff167f6b1817930c7faf6e164ab932320ec1fa9a5511550ed9f18b5c61768d3edff1578260405161120791906122c5565b60405180910390a250565b6000815111611256576040517f08c379a000000000000000000000000000000000000000000000000000000000815260040161124d90612265565b60405180910390fd5b600080815480929190611268906126b6565b91905055506040518060a0016040528060005481526020013373ffffffffffffffffffffffffffffffffffffffff168152602001828152602001428152602001600081525060026000805481526020019081526020016000206000820151816000015560208201518160010160006101000a81548173ffffffffffffffffffffffffffffffffffffffff021916908373ffffffffffffffffffffffffffffffffffffffff160217905550604082015181600201908051906020019061132e92919061191e565b5060608201518160030155608082015181600401559050503373ffffffffffffffffffffffffffffffffffffffff167f285db98a4632176385795ddf0d2b67cef1a21f47eb2f5d06f786ab6b5147e200600054834260405161139293929190612363565b60405180910390a250565b6060600660008373ffffffffffffffffffffffffffffffffffffffff1673ffffffffffffffffffffffffffffffffffffffff16815260200190815260200160002080548060200260200160405190810160405280929190818152602001828054801561145e57602002820191906000526020600020905b8160009054906101000a900473ffffffffffffffffffffffffffffffffffffffff1673ffffffffffffffffffffffffffffffffffffffff1681526020019060010190808311611414575b50505050509050919050565b60008111801561147c57506000548111155b6114bb576040517f08c379a00000000000000000000000000000000000000000000000000000000081526004016114b290612245565b60405180910390fd5b6003600082815260200190815260200160002060003373ffffffffffffffffffffffffffffffffffffffff1673ffffffffffffffffffffffffffffffffffffffff16815260200190815260200160002060009054906101000a900460ff1615611559576040517f08c379a0000000000000000000000000000000000000000000000000000000008152600401611550906121e5565b60405180910390fd5b6004600082815260200190815260200160002060003373ffffffffffffffffffffffffffffffffffffffff1673ffffffffffffffffffffffffffffffffffffffff16815260200190815260200160002060009054906101000a900460ff16156115f7576040517f08c379a00000000000000000000000000000000000000000000000000000000081526004016115ee90612285565b60405180910390fd5b60026000828152602001908152602001600020600401600081548092919061161e9061266d565b919050555060016003600083815260200190815260200160002060003373ffffffffffffffffffffffffffffffffffffffff1673ffffffffffffffffffffffffffffffffffffffff16815260200190815260200160002060006101000a81548160ff0219169083151502179055503373ffffffffffffffffffffffffffffffffffffffff167f17a3ac635e1510c9118bde6592add88884dafd13767d1520f3f918801958ec98826040516116d291906122c5565b60405180910390a250565b600560205281600052604060002081815481106116f957600080fd5b906000526020600020016000915091509054906101000a900473ffffffffffffffffffffffffffffffffffffffff1681565b60008111801561173d57506000548111155b61177c576040517f08c379a000000000000000000000000000000000000000000000000000000000815260040161177390612245565b60405180910390fd5b600034116117bf576040517f08c379a00000000000000000000000000000000000000000000000000000000081526004016117b690612205565b60405180910390fd5b60006002600083815260200190815260200160002060010160009054906101000a900473ffffffffffffffffffffffffffffffffffffffff1690508073ffffffffffffffffffffffffffffffffffffffff166108fc349081150290604051600060405180830381858888f19350505050158015611840573d6000803e3d6000fd5b508073ffffffffffffffffffffffffffffffffffffffff163373ffffffffffffffffffffffffffffffffffffffff167f597440e65d8cdea1298e19df50e115bda25508180452d87a7f4f99195fb843a43460405161189e91906122c5565b60405180910390a35050565b60036020528160005260406000206020528060005260406000206000915091509054906101000a900460ff1681565b6040518060a0016040528060008152602001600073ffffffffffffffffffffffffffffffffffffffff1681526020016060815260200160008152602001600081525090565b82805461192a9061263b565b90600052602060002090601f01602090048101928261194c5760008555611993565b82601f1061196557805160ff1916838001178555611993565b82800160010185558215611993579182015b82811115611992578251825591602001919060010190611977565b5b5090506119a091906119a4565b5090565b5b808211156119bd5760008160009055506001016119a5565b5090565b60006119d46119cf8461242c565b6123fb565b9050828152602081018484840111156119ec57600080fd5b6119f7848285612586565b509392505050565b600081359050611a0e8161279d565b92915050565b600082601f830112611a2557600080fd5b8135611a358482602086016119c1565b91505092915050565b600081359050611a4d816127b4565b92915050565b600060208284031215611a6557600080fd5b6000611a73848285016119ff565b91505092915050565b60008060408385031215611a8f57600080fd5b6000611a9d858286016119ff565b9250506020611aae85828601611a3e565b9150509250929050565b600060208284031215611aca57600080fd5b600082013567ffffffffffffffff811115611ae457600080fd5b611af084828501611a14565b91505092915050565b600060208284031215611b0b57600080fd5b6000611b1984828501611a3e565b91505092915050565b60008060408385031215611b3557600080fd5b6000611b4385828601611a3e565b9250506020611b54858286016119ff565b9150509250929050565b60008060408385031215611b7157600080fd5b6000611b7f85828601611a3e565b925050602083013567ffffffffffffffff811115611b9c57600080fd5b611ba885828601611a14565b9150509250929050565b60008060408385031215611bc557600080fd5b6000611bd385828601611a3e565b9250506020611be485828601611a3e565b9150509250929050565b6000611bfa8383611c2e565b60208301905092915050565b6000611c12838361203f565b905092915050565b6000611c2683836120b5565b905092915050565b611c3781612534565b82525050565b611c4681612534565b82525050565b6000611c578261248c565b611c6181856124df565b9350611c6c8361245c565b8060005b83811015611c9d578151611c848882611bee565b9750611c8f836124b8565b925050600181019050611c70565b5085935050505092915050565b6000611cb582612497565b611cbf81856124f0565b935083602082028501611cd18561246c565b8060005b85811015611d0d5784840389528151611cee8582611c06565b9450611cf9836124c5565b925060208a01995050600181019050611cd5565b50829750879550505050505092915050565b6000611d2a826124a2565b611d348185612501565b935083602082028501611d468561247c565b8060005b85811015611d825784840389528151611d638582611c1a565b9450611d6e836124d2565b925060208a01995050600181019050611d4a565b50829750879550505050505092915050565b611d9d81612546565b82525050565b611dac81612552565b82525050565b611dbb81612552565b82525050565b6000611dcc826124ad565b611dd68185612512565b9350611de6818560208601612595565b611def8161278c565b840191505092915050565b6000611e05826124ad565b611e0f8185612523565b9350611e1f818560208601612595565b611e288161278c565b840191505092915050565b6000611e40602383612523565b91507f596f75206861766520616c72656164792070726f6d6f7465642074686973207060008301527f6f737400000000000000000000000000000000000000000000000000000000006020830152604082019050919050565b6000611ea6601f83612523565b91507f446f6e6174696f6e206d7573742062652067726561746572207468616e2030006000830152602082019050919050565b6000611ee6601b83612523565b91507f416c726561647920666f6c6c6f77696e672074686973207573657200000000006000830152602082019050919050565b6000611f26601383612523565b91507f506f737420646f6573206e6f74206578697374000000000000000000000000006000830152602082019050919050565b6000611f66601783612523565b91507f436f6e74656e742063616e6e6f7420626520656d7074790000000000000000006000830152602082019050919050565b6000611fa6602283612523565b91507f596f75206861766520616c72656164792064656d6f746564207468697320706f60008301527f73740000000000000000000000000000000000000000000000000000000000006020830152604082019050919050565b600061200c601a83612523565b91507f596f752063616e6e6f7420666f6c6c6f7720796f757273656c660000000000006000830152602082019050919050565b600060a083016000830151612057600086018261212b565b50602083015161206a602086018261212b565b50604083015161207d6040860182611c2e565b50606083015184820360608601526120958282611dc1565b91505060808301516120aa608086018261212b565b508091505092915050565b600060a0830160008301516120cd600086018261212b565b5060208301516120e06020860182611c2e565b50604083015184820360408601526120f88282611dc1565b915050606083015161210d606086018261212b565b5060808301516121206080860182611da3565b508091505092915050565b6121348161257c565b82525050565b6121438161257c565b82525050565b600060208201905061215e6000830184611c3d565b92915050565b6000602082019050818103600083015261217e8184611c4c565b905092915050565b600060208201905081810360008301526121a08184611caa565b905092915050565b600060208201905081810360008301526121c28184611d1f565b905092915050565b60006020820190506121df6000830184611d94565b92915050565b600060208201905081810360008301526121fe81611e33565b9050919050565b6000602082019050818103600083015261221e81611e99565b9050919050565b6000602082019050818103600083015261223e81611ed9565b9050919050565b6000602082019050818103600083015261225e81611f19565b9050919050565b6000602082019050818103600083015261227e81611f59565b9050919050565b6000602082019050818103600083015261229e81611f99565b9050919050565b600060208201905081810360008301526122be81611fff565b9050919050565b60006020820190506122da600083018461213a565b92915050565b60006040820190506122f5600083018561213a565b6123026020830184611c3d565b9392505050565b600060a08201905061231e600083018861213a565b61232b6020830187611c3d565b818103604083015261233d8186611dfa565b905061234c606083018561213a565b6123596080830184611db2565b9695505050505050565b6000606082019050612378600083018661213a565b818103602083015261238a8185611dfa565b9050612399604083018461213a565b949350505050565b600060a0820190506123b6600083018861213a565b6123c3602083018761213a565b6123d06040830186611c3d565b81810360608301526123e28185611dfa565b90506123f1608083018461213a565b9695505050505050565b6000604051905081810181811067ffffffffffffffff821117156124225761242161275d565b5b8060405250919050565b600067ffffffffffffffff8211156124475761244661275d565b5b601f19601f8301169050602081019050919050565b6000819050602082019050919050565b6000819050602082019050919050565b6000819050602082019050919050565b600081519050919050565b600081519050919050565b600081519050919050565b600081519050919050565b6000602082019050919050565b6000602082019050919050565b6000602082019050919050565b600082825260208201905092915050565b600082825260208201905092915050565b600082825260208201905092915050565b600082825260208201905092915050565b600082825260208201905092915050565b600061253f8261255c565b9050919050565b60008115159050919050565b6000819050919050565b600073ffffffffffffffffffffffffffffffffffffffff82169050919050565b6000819050919050565b82818337600083830152505050565b60005b838110156125b3578082015181840152602081019050612598565b838111156125c2576000848401525b50505050565b60006125d382612552565b91507f8000000000000000000000000000000000000000000000000000000000000000821415612606576126056126ff565b5b600182039050919050565b600061261c8261257c565b915060008214156126305761262f6126ff565b5b600182039050919050565b6000600282049050600182168061265357607f821691505b602082108114156126675761266661272e565b5b50919050565b600061267882612552565b91507f7fffffffffffffffffffffffffffffffffffffffffffffffffffffffffffffff8214156126ab576126aa6126ff565b5b600182019050919050565b60006126c18261257c565b91507fffffffffffffffffffffffffffffffffffffffffffffffffffffffffffffffff8214156126f4576126f36126ff565b5b600182019050919050565b7f4e487b7100000000000000000000000000000000000000000000000000000000600052601160045260246000fd5b7f4e487b7100000000000000000000000000000000000000000000000000000000600052602260045260246000fd5b7f4e487b7100000000000000000000000000000000000000000000000000000000600052604160045260246000fd5b6000601f19601f8301169050919050565b6127a681612534565b81146127b157600080fd5b50565b6127bd8161257c565b81146127c857600080fd5b5056fea26469706673582212207b34bdd07d8b24b97bfda157b7dbe51c5c8a1c0af93fce81b1857928d3fa0c9564736f6c63430008000033",
  "linkReferences": {},
  "deployedLinkReferences": {}
}